:100000000C94BD190C94E7190C94E7190C94E7199A
:100010000C94E7190C94E7190C94E7190C94E71960
:100020000C94E7190C94496B0C94E7190C94E7199C
:100030000C94E7190C944B9F0C94E7190C94E71956
:100040000C94E7190C94159C0C9404930C94E719E8
:100050000C94113C0C94E7190C94E7190C94E719D3
:100060000C94E7190C94E7190C94E7190C94E71910
:100070000C94E7190C94E7190C94E7190C94E71900
:100080000C94E7190C94E7190C94E71962616B6101
:1000900075617E618761A261AF61B86190619961AC
:1000A000D36AD66AC96ACD6AED6AED6ADA6ADE6A2F
:1000B000E46AE86A3A6C3F6C446C4E6C7C6C7C6C15
:1000C000586C606C686C726C4E414E494E49545984
:1000D000494E46CDCCCC3D0AD7233C17B7D1387713
:1000E000CC2B329595E6241FB14F0A000020410029
:1000F00000C84200401C4620BCBE4CCA1B0E5AAE73
:10010000C59D74434F4D4D554E49434154494F4E43
:100110000044525952554E004552524F52530049D5
:100120004E464F004543484F00536C6565702E2E78
:100130002E00544833442043522D313020726561E3
:1001400064792E00526573756D696E6720707269EF
:100150006E7400436C69636B20746F2072657375F5
:100160006D652E2E2E004E6F206D6F76652E00452C
:100170006E642066696C65206C6973740A00426560
:1001800067696E2066696C65206C6973740A005338
:1001900044207072696E74696E672062797465209C
:1001A000004E6F74205344207072696E74696E67DC
:1001B0000A0046696C652064656C657465643A0084
:1001C00044656C6574696F6E206661696C65642C4A
:1001D0002046696C653A20006F70656E2066616923
:1001E0006C65642C2046696C653A200025697300B3
:1001F00025696D20256973002569682025696D20B2
:1002000025697300256964202569682025696D20AA
:10021000256973002569792025696420256968208E
:1002200025696D20256973005072696E74207469A8
:100230006D653A200050726F746563746564205078
:10024000696E0A004525692025730024011F0118E5
:1002500001110103016F66660044454255473A00AB
:100260004B494C4C45442E20006F6B00486561742F
:10027000696E6720646F6E652E0020573A00452531
:10028000692025730042656420646F6E652E00202E
:10029000573A004265642048656174696E672E00B4
:1002A000544833442043522D3130204F66662E008F
:1002B0004361703A454D455247454E43595F504161
:1002C000525345523A300A004361703A4341534514
:1002D0005F4C494748545F4252494748544E455342
:1002E000533A300A004361703A544F47474C455FD8
:1002F0004C49474854533A300A004361703A534FCF
:100300004654574152455F504F5745523A300A00C4
:100310004361703A4C4556454C494E475F44415401
:10032000413A300A004361703A5A5F50524F424599
:100330003A300A004361703A4155544F4C45564596
:100340004C3A300A004361703A5052494E545F4A69
:100350004F423A310A004361703A50524F4752457A
:1003600053533A300A004361703A4155544F524555
:10037000504F52545F54454D503A310A004361701A
:100380003A454550524F4D3A310A004649524D5771
:100390004152455F4E414D453A4D61726C696E2048
:1003A0003131355448334420534F555243455F4310
:1003B0004F44455F55524C3A2050524F544F434F93
:1003C0004C5F56455253494F4E3A312E30204D41E5
:1003D0004348494E455F545950453A5448334420A8
:1003E00043522D31302045585452554445525F43B5
:1003F0004F554E543A3120555549443A7468336448
:100400000A002F2F20007A5F6D696E3A2000795F15
:100410006D696E3A2000785F6D696E3A2000526512
:10042000706F7274696E6720656E6473746F70208C
:100430007374617475730A004D31343520533C690F
:100440006E6465783E206F7574206F662072616EF1
:1004500067652028302D31290A0053657474696E50
:10046000672054726176656C20416363656C6572C8
:100470006174696F6E3A200053657474696E672009
:100480005265747261637420416363656C65726167
:1004900074696F6E3A200053657474696E672050FA
:1004A00072696E7420416363656C65726174696F13
:1004B0006E3A200053657474696E67205072696EDD
:1004C0007420616E642054726176656C20416363B0
:1004D000656C65726174696F6E3A2000205A002065
:1004E0005900580020204D61783A2000205A002001
:1004F0005900580020204D696E3A20004F6E2000B0
:100500004F666600536F667420656E6473746F7017
:10051000733A200000010F150E12FF16170E13FF7D
:1005200003021A14FFFFFF0C04FFFFFF01000EFF80
:10053000FF0C190DFF18FFFFFFFFFFFF20643A00BB
:1005400020693A0020703A004E6F20636173652085
:100550006C696768740A0041637469766520457840
:100560007472756465723A2000556E6B6E6F776EAB
:1005700020636F6D6D616E643A2022004E6F204CD7
:10058000696E65204E756D626572207769746820AA
:10059000636865636B73756D2C204C617374204CBC
:1005A000696E653A20004B494C4C45442E2000535F
:1005B000544F505045442E20005072696E7465723D
:1005C0002073746F707065642064756520746F208B
:1005D0006572726F72732E20466978207468652088
:1005E0006572726F7220616E6420757365204D397B
:1005F000393920746F20726573746172742E2028EB
:1006000054656D70657261747572652069732072CE
:10061000657365742E205365742069742061667457
:1006200065722072657374617274696E67290A005D
:100630004E6F20436865636B73756D2077697468CE
:10064000206C696E65206E756D6265722C204C6140
:100650007374204C696E653A2000636865636B7340
:10066000756D206D69736D617463682C204C6173C6
:1006700074204C696E653A20004C696E65204E7599
:100680006D626572206973206E6F74204C617374A3
:10069000204C696E65204E756D6265722B312C2081
:1006A0004C617374204C696E653A20004D313130D5
:1006B000004D3331004D383420582059205A204500
:1006C0000053442072656164206572726F720A0083
:1006D000446F6E65207072696E74696E672066691A
:1006E0006C650A0020496E76616C696420657874D7
:1006F00072756465722000000000000000000000B8
:1007000000000000009643000096430000C8434BE1
:10071000494C4C45442E20004B494C4C206361759C
:1007200073656420627920746F6F206D7563682033
:10073000696E6163746976652074696D65202D202A
:1007400063757272656E7420636F6D6D616E643A6D
:100750002000506C6561736520726573657400508C
:1007600052494E5445522048414C54454400507221
:10077000696E7465722068616C7465642E206B69A3
:100780006C6C28292063616C6C6564210A00656EBD
:100790007175657565696E672022000000000000B4
:1007A000000000000000000000F0410000F04100E7
:1007B000008040000000005761726E696E673A2049
:1007C000486F6D696E672042756D70204469766967
:1007D000736F72203C20310A000202040000A04026
:1007E0000000A04000000040000096430000964337
:1007F0000000C843FFFFFF7C3C3E5E2B3D3F2F5B6C
:100800005D3B2C2A225C00416D6178204500416DE2
:100810006178204500416D6178205A00416D617812
:10082000205A00416D6178205900416D617820594E
:1008300000416D6178205800416D61782058004179
:100840002D74726176656C00412D74726176656CF1
:1008500000412D7265747261637400412D7265747C
:100860007261637400416363656C00416363656C2E
:10087000004D6F74696F6E0056652D6A65726B006E
:1008800056652D6A65726B0056652D6A65726B0040
:10089000567A2D6A65726B00567A2D6A65726B0006
:1008A00056792D6A65726B0056792D6A65726B00F8
:1008B00056792D6A65726B0056782D6A65726B00E9
:1008C00056782D6A65726B0056782D6A65726B00DA
:1008D0004D6F74696F6E004573746570732F6D6D25
:1008E000004573746570732F6D6D005A7374657075
:1008F000732F6D6D005A73746570732F6D6D005991
:1009000073746570732F6D6D005973746570732FF8
:100910006D6D005873746570732F6D6D005873742E
:100920006570732F6D6D004D6F74696F6E00537439
:100930006570732F6D6D004A65726B00416363656E
:100940006C65726174696F6E0056656C6F63697473
:100950007900436F6E74726F6C0043616E6E6F74DA
:1009600020656E746572207375626469723A200046
:10097000022E2E000152656672657368004D616932
:100980006E004572726F722077726974696E6720AB
:10099000746F20454550524F4D210A00290A00200E
:1009A00062797465733B20637263200053657474CD
:1009B000696E67732053746F726564202800202865
:1009C00063616C63756C6174656429210A00202180
:1009D0003D2000454550524F4D20435243206D6904
:1009E000736D61746368202D202873746F72656461
:1009F000292000290A002062797465733B20637204
:100A00006320002073746F72656420736574746969
:100A10006E6773207265747269657665642028005C
:100A2000204D61726C696E3D563430290A002845AC
:100A30004550524F4D3D00454550524F4D20766533
:100A40007273696F6E206D69736D617463682000E5
:100A500020204E6F7A7A6C653A2000200066696C1F
:100A6000616D656E74206578747275646500576198
:100A7000697420666F72005052494E54205041559F
:100A800053454400746F20726573756D650057613E
:100A9000697420666F72207072696E7400505249DA
:100AA0004E54205041555345440000060900FE07AE
:100AB0000192032120FFFF08FF07FF00000006004E
:100AC000000107070602008080808080008003020A
:100AD00002060105A0A00507070600005050F850C7
:100AE000F850500507070600002078A07028F02075
:100AF000050707060000C0C8102040981805070722
:100B00000600006090A040A890680203030601045C
:100B1000C0408003070706010020408080804020FD
:100B200003070706010080402020204080050505BE
:100B300006000120A870A820050505060001202058
:100B4000F820200203030602FFC0408005010106D1
:100B50000003F8020202060200C0C00505050600F7
:100B6000010810204080050707060000708888886B
:100B700088887003070706010040C040404040E0FD
:100B8000050707060000708808708080F8050707D1
:100B9000060000F81020100808F0050707060000FE
:100BA00010305090F81010050707060000F880F08C
:100BB00008088870050707060000708080F08888A4
:100BC00070050707060000F8081020202020050700
:100BD000070600007088887088887005070706007F
:100BE0000070888878080870020505060200C0C0F9
:100BF00000C0C00206060602FFC0C000C04080045C
:100C0000070706000010204080402010050303065F
:100C10000002F800F80407070601008040201020B9
:100C20004080050707060000708808102000200596
:100C3000070706000070880868A8A870050707065F
:100C40000000708888F8888888050707060000F08B
:100C50008888F08888F00507070600007088808083
:100C6000808870050707060000F08888888888F06B
:100C7000050707060000F88080F08080F805070768
:100C8000060000F88080F0808080050707060000DD
:100C9000708880B8888870050707060000888888F3
:100CA000F88888880107070602008080808080809D
:100CB0008005070706000038101010109060050727
:100CC000070600008890A0C0A090880507070600CE
:100CD00000808080808080F805070706000088D8A3
:100CE000A8888888880507070600008888C8A8980B
:100CF000888805070706000070888888888870053E
:100D00000707060000F08888F08080800507070646
:100D1000000070888888A89068050707060000F022
:100D20008888F0A09088050707060000788080700A
:100D30000808F0050707060000F8202020202020E2
:100D400005070706000088888888888870050707D7
:100D5000060000888888888850200507070600005C
:100D60008888888888A8500507070600008888506A
:100D700020508888050707060000888888502020B2
:100D800020050707060000F80810204080F8030738
:100D900007060100E08080808080E00505050600F0
:100DA000018040201008030707060100E0202020F2
:100DB0002020E005030306000420508805010106F9
:100DC0000000F80202020602058040050505060043
:100DD0000070087888780507070600008080B0C892
:100DE0008888F0050505060000708080887005077A
:100DF0000706000008086898888878050505060039
:100E0000007088F880700507070600003048E04051
:100E10004040400506060600FF7088887808700587
:100E200007070600008080B0C88888880107070689
:100E30000200800080808080800308080601FF2077
:100E40000020202020A0400407070600008080909A
:100E5000A0C0A090030707060100C04040404040EA
:100E6000E0050505060000D0A8A8A8A80505050608
:100E70000000B0C8888888050505060000708888CD
:100E800088700506060600FFF08888F08080050659
:100E9000060600FF78888878080805050506000022
:100EA000B0C880808005050506000070807008F0DD
:100EB0000407070600004040E040404030050505BB
:100EC000060000888888986805050506000088885F
:100ED0008850200505050600008888A8A85005054B
:100EE0000506000088502050880506060600FF8889
:100EF0008888780870050505060000F8102040F87D
:100F000003070706010020404080404020010707FA
:100F10000602008080808080808003070706010031
:100F20008040402040408005020206000268900098
:100F3000000006000000000006000000000006009F
:100F40000000000006000000000006000000000095
:100F5000060000000000060000000000060000007F
:100F6000000006000000000006000000000006006F
:100F70000000000006000000000006000000000065
:100F8000060000000000060000000000060000004F
:100F9000000006000000000006000000000006003F
:100FA0000000000006000000000006000000000035
:100FB000060000000000060000000000060000001F
:100FC000000006000000000006000000000006000F
:100FD0000000000006000000000006000000000005
:100FE00006000000000006000000000006000000EF
:100FF00000000600000000000600000107070602CE
:101000000080008080808080050707060000207037
:10101000A8A0A87020050707060000304040E04067
:1010200050A8050505060000887050708805070760
:10103000060000885020F820F8200107070602006B
:1010400080808000808080050808060000304820ED
:101050005050209060030101060107A00507070614
:101060000000F888B8B8B888F805070706000170CE
:101070000878887800F80505050600012850A0507A
:1010800028050303060001F808080202020602060A
:101090004080050707060000F888A88898A8F8058A
:1010A0000101060006F80404040600036090906045
:1010B0000507070600002020F8202000F804050599
:1010C00006000360902040F0030505060003E020C1
:1010D000E020E00202020602064080050808060041
:1010E000FF8888888898E8808005070706000078D0
:1010F000989878181818020202060202C0C002026C
:10110000020602FF408003050506000340C0404080
:10111000E0050707060001708888887000F805055B
:1011200005060001A0502850A0050707060000880A
:1011300090A858B808080507070600008890B84826
:10114000982038050808060000C040C048D8380874
:101150000805070706000020002040808870050869
:10116000080600004020007088F8888805080806F6
:1011700000001020007088F8888805080806000024
:101180002050007088F888880508080600006890DC
:10119000007088F8888805080806000050007088EC
:1011A00088F888880508080600002050207088F814
:1011B00088880507070600003860A0B8E0A0B805D9
:1011C00008080600FF708880808870206005080885
:1011D000060000402000F880F080F80508080600AE
:1011E00000081000F880F080F805080806000020CC
:1011F0005000F880F080F80507070600005000F85E
:1012000080F080F8030808060100804000E04040BC
:1012100040E0030808060100204000E0404040E0B4
:1012200003080806010040A000E0404040E003073A
:1012300007060100A000E0404040E0050707060067
:1012400000704848E84848700508080600006890A3
:101250000088C8A898880508080600004020708803
:101260008888887005080806000010207088888823
:101270008870050808060000205000708888887073
:1012800005080806000068900070888888700508C6
:1012900008060000500070888888887005050506DB
:1012A000000188502050880508080600FF1070A82B
:1012B000A8A8A87040050808060000402088888873
:1012C00088887005080806000010208888888888AB
:1012D000700508080600002050008888888870057E
:1012E000080806000050008888888888700508086B
:1012F0000600001020885020202020050909060043
:10130000FFC040704848704040E00408080601FFF4
:10131000609090A09090E0800508080600004020B2
:101320000070087888780508080600001020007012
:1013300008788878050808060000205000700878B2
:10134000887805080806000068900070087888789A
:10135000050707060000500070087888780508081F
:1013600006000020502070087888780506060600E0
:1013700000D02878A0A8500506060600FF708088D7
:101380007020600508080600004020007088F88082
:10139000700508080600001020007088F8807005AD
:1013A00008080600002050007088F88070050707C4
:1013B00006000050007088F88070030808060100DD
:1013C00080400040C04040E0030808060100204083
:1013D0000040C04040E003080806010040A0004073
:1013E000C04040E0030707060100A00040C04040A5
:1013F000E0050707060000A040A0107888700508E7
:1014000008060000689000B0C888888805080806AB
:1014100000004020007088888870050808060000D9
:101420001020007088888870050808060000205089
:1014300000708888887005080806000068900070B1
:101440008888887005070706000050007088888823
:10145000700505050600012000F8002005070706B5
:1014600000FF1070A8A8A8704005080806000040FA
:101470002000888888986805080806000010200069
:101480008888889868050808060000205000888829
:1014900088986805070706000050008888889868C3
:1014A0000509090600FF102000888888F8087004E4
:1014B00007070601FFC04060506040E005080806CD
:1014C00000FF5000888888780870457874727564C9
:1014D0006572004D6F7665205A004D6F7665205914
:1014E000004D6F766520580050726570617265001E
:1014F0004D3530320A4D35303000526573746F729D
:1015000065206661696C73616665004C6F6164207B
:1015100073657474696E677300496E697469616C90
:10152000697A6520454550524F4D0053746F72657E
:101530002073657474696E6773004D6F74696F6EA4
:101540000054656D7065726174757265004D6169F6
:101550006E00507265686561742041425320636F6C
:101560006E66005072656865617420504C4120635E
:101570006F6E66005049442D44005049442D44008C
:101580005049442D49005049442D49005049442DAB
:1015900050005049442D500046616E2073706565BF
:1015A000640046616E2073706565640046616E205C
:1015B00073706565640042656400426564004E6F47
:1015C0007A7A6C65004E6F7A7A6C6500436F6E7440
:1015D000726F6C0053746F72652073657474696EFA
:1015E0006773004265640042656400426564004EB2
:1015F0006F7A7A6C65004E6F7A7A6C65004E6F7AFE
:101600007A6C650046616E207370656564004661A2
:101610006E2073706565640046616E207370656549
:10162000640054656D70657261747572650056541E
:10163000726176206D696E005654726176206D6914
:101640006E005654726176206D696E00566D696E3B
:1016500000566D696E00566D696E00566D6178209A
:101660004500566D6178204500566D617820450033
:10167000566D6178205A00566D6178205A00566D7B
:101680006178205A00566D6178205900566D617856
:10169000205900566D6178205900566D61782058A8
:1016A00000566D6178205800566D61782058004DC5
:1016B0006F74696F6E0000002100240027002A006B
:1016C00000002200250028002B000000200023003D
:1016D000260029000202020202020202040404049B
:1016E00004040404030303030303030301010101CE
:1016F00001010101010204081020408001020408D8
:1017000010204080010204081020408080402010FA
:1017100008040201000000010200090A00000000A4
:1017200004030807000000000000000000000000A3
:1017300000000000024B494C4C45442E2000202D57
:1017400020496E76616C6964206578747275646591
:1017500072206E756D62657220210A002020506C27
:10176000616E6E6572427566666572427974657304
:101770003A20002046726565204D656D6F72793A9A
:101780002000436F6D70696C65643A20536570206A
:10179000313820323031370A00207C20417574689E
:1017A0006F723A202854483344290A0000204C61C3
:1017B000737420557064617465643A20003131356A
:1017C000544833440A004D61726C696E0020536FB7
:1017D0006674776172652052657365740A002057DC
:1017E00061746368646F672052657365740A0020D2
:1017F00042726F776E206F75742052657365740A3C
:10180000002045787465726E616C20526573657452
:101810000A00506F77657255700A007374617274B4
:101820000A006572726F722077726974696E672040
:10183000746F2066696C650A00456E6473746F701E
:101840007320256320256320256320256300205A0B
:101850003A0020593A0020583A00656E6473746F5C
:101860007073206869743A2000446F6E652073615C
:1018700076696E672066696C652E0A004D32390004
:101880005072656865617420504C4120456E64005B
:101890005072656865617420504C41204265640057
:1018A0005072656865617420504C410050726570DB
:1018B0006172650050726568656174204142532011
:1018C000456E640050726568656174204142532022
:1018D000426564005072656865617420414253003E
:1018E00050726570617265004D343238004D36308B
:1018F000302042300044697361626C652073746506
:101900007070657273004D38340053657420686FD1
:101910006D65206F666673657473005072656865E7
:1019200061742041425300507265686561742050B3
:101930004C4100436F6F6C646F776E004368616E5B
:1019400067652066696C616D656E7400486F6D65D2
:10195000205A00473238205A00486F6D65205900E0
:10196000473238205900486F6D652058004732389B
:101970002058004175746F20686F6D6500473238DC
:10198000004D6F76652061786973004D61696E0066
:101990004D6F76652058004D6F76652059004D6F6C
:1019A0007665205A004578747275646572004D6FD3
:1019B000766520302E316D6D004D6F766520316D6E
:1019C0006D004D6F76652031306D6D004D6F766521
:1019D0002061786973004578747275646572004D92
:1019E0006F7665205A004D6F76652059004D6F76F1
:1019F000652058000000000000000000000000000A
:101A000000000000000000000000000000000000D6
:101A100000000000000000000000000000000000C6
:101A2000000000000000000000000003C0000000F3
:101A3000000000000000000000000003C0000000E3
:101A4000000000000000000000000003C0000000D3
:101A5000000000000000000000000003C0000000C3
:101A6000000000000000000000000003C0000000B3
:101A7000000000000000000000000003C0000000A3
:101A8000000000000000000000000003C000000093
:101A9000000000000000000000000003C000000083
:101AA000000000000000000000000007E00000004F
:101AB00000000000000000000000001FF80000000F
:101AC00000000000000000000000007FFE00000099
:101AD0000000000000000000000000FFFF00000008
:101AE0000000000000000000000003FFFFC0000035
:101AF0000000000000000000000007FC3FE00000C4
:101B0000000000000000000000000FF81FF00000BF
:101B1000000000000000000000000FF00FF00000C7
:101B2000000000000000000000000FFC3FF000007B
:101B3000000000000000000000000FFF7FF0000028
:101B4000000000000000000000000FFFFFF0000098
:101B5000000000000000000000000FFFFFF0000088
:101B6000000000000000000000000F9FF9F00000DE
:101B7000000000000000000000000F8FF1F00000E6
:101B8000000000000000000000000F83C1F0000012
:101B9000000000000000000000000F83C1F0000002
:101BA000000000000000000000000F83C1F00000F2
:101BB000000000000000000000001FC3C3F8000088
:101BC000000000000000000000007FF3CFFE0000D6
:101BD00000000000000000000000FFFBDFFF00002D
:101BE00000000000000000000003FFFFFFFFC00036
:101BF0000000000000000000000FFDFFFFBFF0002C
:101C00000000000000000000000FF8FFFF1FF000C0
:101C10000000000000000000000FE03FFC07F000A3
:101C20000000000000000000000F800FF001F00035
:101C30000000000000000000000F0007E000F000BE
:101C40000000000000000000000000000000000094
:101C50000000000000000000000000000000000084
:101C60000000000000000000000000000000000074
:101C70000000000000000000000000000000000064
:101C80000000000000000000000000000000000054
:101C90000000000000000000000000000000000044
:101CA0000000000000000000000000000000000034
:101CB00000000000000000001FFFFC1F1FE3FFC02A
:101CC00000000000000000001FFFFC1F3FF3FFE0CA
:101CD00000000000000000001FFFFC1F3FFBFFF0A2
:101CE00000000000000000001FFFFC1F7CFBFFF84D
:101CF000000000000000000001F07C1F7C7BE1F888
:101D0000000000000000000001F07C1F787BE0F87C
:101D1000000000000000000001F07FFF03FBE078FE
:101D2000000000000000000001F07FFF03F3E078F6
:101D3000000000000000000001F07FFF03FBE078DE
:101D4000000000000000000001F07FFF03FBE078CE
:101D5000000000000000000001F07C1F007BE07824
:101D6000000000000000000001F07C1F787BE0F81C
:101D7000000000000000000001F07C1F787BE1F80B
:101D8000000000000000000001F07C1F7CFBFFF061
:101D9000000000000000000001F07C1F7FFBFFF04E
:101DA000000000000000000001F07C1F3FF3FFE096
:101DB000000000000000000001F07C1F1FE3FF8016
:101DC0000000000000000000000000000000000013
:101DD0000000000000000000000000000000000003
:101DE00000000000000000000000000000000000F3
:101DF0000000000053442063617264206F6B0A008E
:101E00006F70656E526F6F74206661696C65640AED
:101E100000766F6C756D652E696E697420666169F8
:101E20006C65640A00534420696E697420666169B8
:101E30006C0A006175746F25692E67004D3234009D
:101E40004D32332025730057726974696E672074B0
:101E50006F2066696C653A20006F70656E20666160
:101E6000696C65642C2046696C653A20006F70656A
:101E70006E206661696C65642C2046696C653A2049
:101E80000046696C652073656C65637465640A005F
:101E90002053697A653A200046696C65206F706549
:101EA0006E65643A20006F70656E206661696C65CE
:101EB000642C2046696C653A20002066696C653A9E
:101EC00020004E6F7720002220706F730022207058
:101ED0006172656E743A2200535542524F5554490F
:101EE0004E452043414C4C207461726765743A2220
:101EF000004B494C4C45442E2000747279696E6742
:101F000020746F2063616C6C207375622D67636F42
:101F100064652066696C6573207769746820746FE6
:101F20006F206D616E79206C6576656C732E204D27
:101F30004158206C6576656C2069733A0045727271
:101F40006F723A0043616E6E6F74206F70656E2021
:101F500073756264697220006563686F3A00544863
:101F600045524D414C2052554E41574159005468FD
:101F700065726D616C2052756E61776179002575AF
:101F80003A2530327500253032753A2530327500E9
:101F900025756420253032753A25303275005A0097
:101FA0005900580009200000000000000000000057
:101FB0000000007FFFE000000000000000000000C3
:101FC00000007000E00000000000000000000000C1
:101FD0000061F86000000000000000000000000048
:101FE00041F8200000000000000000000000004058
:101FF000F020000000000000000000000000406031
:10200000200000000000000000000000005801A0B7
:102010007F80000000000000004104005C63A0FF1E
:10202000C0000000000000002082005EF7A0FFC09A
:10203000000000000000002082005EF7A0FFC0004A
:102040000000000000004104005C63A07F800000ED
:1020500000000000008208005801A07F80000000FE
:1020600000000001041000406020FFC000000000DC
:1020700000000104100040F020FFC000000000003C
:10208000000082080041F820FFC0000000000000AE
:102090000041040061F8603F000000000000000003
:1020A0000000007000E01E0000000000000001FFC2
:1020B000FF807FFFE00C0000000000000001FFFF38
:1020C0008000000000000000000000000000000090
:1020D0007FFFE00000000000000000000000007032
:1020E00000E0000000000000000000000000630CA1
:1020F00060000000000000000000000000470E200B
:102100000000000000000000000000004F0F200051
:1021100000000000000000000000005F0FA00000B1
:10212000000000000000000000005E07A07F8000AB
:10213000000000000000410400406020FFC00000DB
:10214000000000000020820040F020FFC0000000DE
:102150000000000020820040F020FFC000000000CE
:102160000000004104004060207F8000000000006B
:1021700000008208005E07A07F80000000000000D1
:10218000010410005F0FA0FFC0000000000000016C
:102190000410004F0F20FFC000000000000000826C
:1021A0000800470E20FFC0000000000000004104AE
:1021B00000630C603F000000000000000000000011
:1021C0007000E01E0000000000000001FFFF807FA3
:1021D000FFE00C0000000000000001FFFF80000095
:1021E0000000060900FE000000000001090008FED2
:1021F000000005080806000040F0C888889878109C
:10220000050808060000C0F88888888888F8050551
:10221000050600012030F8302005080806000020DF
:1022200070F820202020E00509090600FF2070A892
:10223000A8B8888870200509090600FFE080C0B0B2
:10224000A8283028280509090600FFF8A8888888EA
:102250008888A8F8050A0A0600FE205050505088C9
:10226000A8A8887003030306000340A040202F00A5
:102270002042403A0020403A00205A3A0020593A81
:102280000020436F756E7420583A0020453A0020B4
:102290005A3A0020593A00583A0023646566696E3C
:1022A00065202044454641554C545F4B6420002333
:1022B000646566696E65202044454641554C545F0F
:1022C0004B69200023646566696E6520204445469D
:1022D00041554C545F4B7020005049442041757467
:1022E0006F74756E652066696E6973686564212018
:1022F00050757420746865206C617374204B702C69
:10230000204B6920616E64204B6420636F6E737490
:10231000616E74732066726F6D2062656C6F7720DA
:10232000696E746F20436F6E666967757261746958
:102330006F6E2E680A00504944204175746F7475A1
:102340006E65206661696C6564212074696D656FD6
:1023500075740A00504944204175746F74756E6538
:10236000206661696C6564212054656D70657261D9
:102370007475726520746F6F20686967680A002041
:102380004B643A2000204B693A2000204B703A20E1
:10239000000A20436C617373696320504944200A2A
:1023A000002054753A2000204B753A2000206D61C2
:1023B000783A2000206D696E3A200020643A2000AF
:1023C00020626961733A20004F66667365747320FA
:1023D0006170706C696564004572723A20546F6F69
:1023E000206661722100546F6F20666172206672F0
:1023F0006F6D207265666572656E636520706F69CA
:102400006E740A0070012C0190012701B0012201B5
:10241000C0011D01F00118011002130130020E016C
:102420006002090190020401C002FF000003FA00EB
:102430004003F5008003F000D003EB002004E60029
:102440007004E100E004DC004005D700C005D200C4
:102450004006CD00D006C8008007C3003008BE008B
:10246000F008B900C009B400B00AAF00B00BAA0070
:10247000D00CA500000EA000500F9B00C0109600CD
:102480005012910000148C00C0158700B017820014
:10249000B0197D00D01B7800001E730040206E0034
:1024A00090226900F024640040275F0090295A00C0
:1024B000E02B5500102E500020304B00103246000B
:1024C000E033410090353C0010373700703832005F
:1024D000A0392D00B03A2800A03B2300603C1E002C
:1024E000103D1900903D1400103E0F00703E0A0090
:1024F000C03E0500003F0000403FFBFF803FF6FF6D
:10250000C03FF1FF6265640A002C20737973746523
:102510006D2073746F707065642120486561746507
:10252000725F49443A200048656174696E672066AD
:1025300061696C65640048656174696E67206661F5
:10254000696C6564001000C90210012C0140012271
:102550000170011801B0010E01F00104015002FAEE
:1025600000B002F0003003E600D003DC009004D29B
:10257000007005C800A006BE000008B400B009AA9B
:1025800000D00BA000600E960060118C0000158238
:102590000020197800C01D6E00A0226400B0275AE8
:1025A00000902C500000314600E0343C00103832DE
:1025B00000903A2800603C1E00A03D1400803E0AB6
:1025C00000203F00004572723A204D494E54454D5F
:1025D0005020424544004572723A204D494E5445C0
:1025E0004D50004D494E54454D50207472696767F7
:1025F00065726564004572723A204D415854454DEC
:102600005020424544004572723A204D415854458D
:102610004D50004D415854454D50207472696767C4
:10262000657265640024F4D43050C38E20C2A24089
:1026300017828B7011127A910D816CD90AA861E111
:1026400008C7586607615143061E4B5D05C145A783
:10265000041A411104093D9803713931034036DBF6
:102660000265339102D4305402802E1D02632CEE99
:1026700001752AC501B028A001102781018F2564AA
:10268000012B244B01E0223401AC211F018D200DD0
:1026900001801FFC00841EED00971DDF00B81CD2D6
:1026A00000E61BC600201BBC00641AB200B219A8C9
:1026B000000A19A0006A189900D117910040178BE1
:1026C00000B516840031167E00B31579003A1573F3
:1026D00000C7146F0058146A00EE13660088136375
:1026E0000025135E00C7125B006C125700151254D0
:1026F00000C111510070114F0021114B00D610493B
:10270000008D1047004610440002104200C00F40E8
:1027100000800F3E00420F3C00060F3B00CB0E38FE
:1027200000930E37005C0E3500270E3400F30D3297
:1027300000C10D3100900D3000600D2E00320D2DC6
:1027400000050D2C00D90C2B00AE0C2900850C299E
:10275000005C0C2700350C27000E0C2600E80B242B
:1027600000C40B2400A00B23007D0B23005A0B2177
:1027700000390B2100180B2000F80A1F00D90A1E8F
:1027800000BB0A1E009D0A1D00800A1D00630A1C72
:1027900000470A1B002C0A1B00110A1A00F7091A2D
:1027A00000DD091900C4091900AB091900920917C5
:1027B000007B091800630917004C0916003609163A
:1027C00000200916000A091500F5081500E0081494
:1027D00000CC081400B8081400A4081400900813D2
:1027E000007D0812006B08130058081200460812FA
:1027F000003408110023081100120811000108110B
:1028000000F0071000E0071000D0071000C007100C
:1028100000B0070F00A107100091070E0083070FFB
:102820000074070F0065070E0057070E0049070EDA
:10283000003B070D002E070E0020070D0013070DAB
:102840000006070D00F9060C00ED060D00E0060C71
:1028500000D4060C00C8060C00BC060C00B0060C28
:1028600000A4060B0099060C008D060B0082060BD7
:102870000077060B006C060B0061060A0057060B7A
:10288000004C060A0042060A0038060A002E060A14
:102890000024060A001A060A001006090007060AA4
:1028A00000FD050900F4050900EB050900E2050932
:1028B00000D9050900D0050900C7050900BE0509B2
:1028C00000B5050800AD050800A50509009C050830
:1028D00000940508008C050800840508007C0508A4
:1028E00000740508006C050700650508005D050714
:1028F00000560508004E050700470507004005087B
:102900000038050700310507002A050700230507E1
:10291000001C050600160507000F05070008050640
:102920000002050700FB040600F5040700EE04069C
:1029300000E8040600E2040700DB040600D50406F4
:1029400000CF040600C9040600C3040600BD040647
:1029500000B7040600B1040500AC040600A6040696
:1029600000A00405009B04060095040500900406E1
:10297000008A04050085040500800406007A040529
:102980000075040500700405006B0405006604056D
:1029900000610405005C04050057040500520405AD
:1029A000004D04050048040500430405003E0404EE
:1029B000003A04050035040500300404002C040529
:1029C0000027040400230405001E0404001A040464
:1029D0000016040500110404000D04040009040598
:1029E000000404040000040400FC030400F80304D1
:1029F00000F4030400F0030400EC030400E8030403
:102A000000E4030400E0030400DC030400D8030432
:102A100000D4030400D0030400CC030400C8030363
:102A200000C503030024F404D9201BC40C5C0E98D9
:102A300004C4095F0265077101F405F900FB04B3E2
:102A40000048048700C1036900580355000303458B
:102A500000BE023A008402310053022A00290225F6
:102A60000004022000E4011C00C8011900AF011796
:102A7000009801140084011300710110006101101D
:102A80000051010E0043010D0036010B002B010B1C
:102A90000020010B00150109000C010900030108C9
:102AA00000FB000800F3000800EB000700E400064C
:102AB00000DE000600D8000600D2000600CC0005AB
:102AC00000C7000500C2000500BD000400B90004F5
:102AD00000B5000400B1000400AD000400A900042A
:102AE00000A5000300A20003009F0004009B000358
:102AF000009800030095000200930003009000037B
:102B0000008D0002008B0003008800020086000296
:102B10000084000300810002007F0002007D0002AB
:102B2000007B0002007900020077000100760002BD
:102B3000007400020072000100710002006F0002C8
:102B4000006D0001006C0002006A000100690002D3
:102B500000670001006600010065000100640002DA
:102B6000006200010061000100600001005F0002DE
:102B7000005D0001005C0001005B0001005A0001E3
:102B800000590001005800010057000100560001E3
:102B900000550001005400010053000000530001E3
:102BA000005200010051000100500001004F0001DF
:102BB000004E0000004E0001004D0001004C0001DD
:102BC000004B0000004B0001004A000100490001D9
:102BD00000480000004800010047000100460000D6
:102BE00000460001004500000045000100440001CE
:102BF00000430000004300010042000000420001C9
:102C0000004100000041000100400001003F0000C1
:102C1000003F0001003E0000003E0001003D0000BA
:102C2000003D0001003C0000003C0000003C0001B1
:102C3000003B0000003B0001003A0000003A0001A8
:102C400000390000003900010038000000380000A1
:102C50000038000100370000003700010036000096
:102C6000003600000036000100350000003500008D
:102C70000035000100340000003400000034000181
:102C80000033000000330000003300010032000078
:102C9000003200000032000100310000003100006D
:102CA0000031000100300000003000000030000161
:102CB000002F0000002F0000002F0000002F000157
:102CC000002E0000002E0000002E0001002D00004C
:102CD000002D0000002D0000002D0001002C000040
:102CE000002C0000002C0000002C0001002B000034
:102CF000002B0000002B0000002B0001002A000028
:102D0000002A0000002A0000002A0001002900001B
:102D1000002900000029000000290000002900010E
:102D20000028000000280000002800000028000003
:102D300000280001002700000027000000270000F5
:102D400000270000002700010026000000260000E8
:102D500000260000002600000026000100250000DB
:102D600000250000002500000025000000250000CF
:102D700000250001002400000024000000240000C1
:102D800000240000002400010023000000230000B4
:102D900000230000002300000023000000230000A7
:102DA0000023000100220000002200000022000099
:102DB000002200000022000000220001002100008B
:102DC000002100000021000000210000002100007F
:102DD0000021000000210001002000000020000070
:102DE0000020000000200000002000000020000063
:102DF0000020000000200001001F0000001F000054
:102E0000001F0000001F0000001F0000001F000046
:102E1000001F0001001E0000001E0000001E000038
:102E2000001E0000004D383420582059205A2045FB
:102E30000048617264636F6465642044656661750F
:102E40006C742053657474696E6773204C6F616491
:102E500065640A00E8030000E8030000E8030000DE
:102E6000881300000000FA430000FA43000070419C
:102E70000000C8410000A0420000A0420000C8437A
:102E80000000BE4220440020490020204D33303154
:102E90002050005049442073657474696E67733A1A
:102EA0000A0020460020420020480020204D3134F6
:102EB000352053004D6174657269616C20686561ED
:102EC00074757020706172616D65746572733A0A11
:102ED00000205A0020590020204D32303620580062
:102EE000486F6D65206F66667365743A0A00204509
:102EF00000205A0020590020580020420020540091
:102F000020204D323035205300416476616E636578
:102F1000643A20533C6D696E5F66656564726174E6
:102F2000653E20543C6D696E5F74726176656C5FBE
:102F300066656564726174653E20423C6D696E5FD2
:102F40007365676D656E745F74696D655F6D733E03
:102F500020583C6D61785F78795F6A65726B3E20BE
:102F60005A3C6D61785F7A5F6A65726B3E20453CC2
:102F70006D61785F655F6A65726B3E0A0020540080
:102F800020520020204D32303420500041636365D0
:102F90006C65726174696F6E2028756E6974732F29
:102FA0007332293A20503C7072696E745F616363BA
:102FB000656C3E20523C726574726163745F61633C
:102FC00063656C3E20543C74726176656C5F61632E
:102FD00063656C3E0A00204500205A0020590020FD
:102FE000204D3230312058004D6178696D756D206B
:102FF000416363656C65726174696F6E2028756EDC
:103000006974732F7332293A0A00204500205A0050
:1030100020590020204D3230332058004D6178690E
:103020006D756D20666565647261746573202875C1
:103030006E6974732F73293A0A00204500205A00E4
:1030400020590020204D3932205800537465707388
:103050002070657220756E69743A0A0020204D3226
:1030600030302044300A0020204D323030204400DF
:103070002044697361626C65640A0046696C616D25
:10308000656E742073657474696E67733A002020EE
:103090004D3134392043203B20556E6974732069CB
:1030A0006E2043656C736975730A002020473231C6
:1030B000202020203B20556E69747320696E206D9E
:1030C0006D0A005072696E742070617573656400DA
:1030D000005072696E742061626F72746564004D95
:1030E0003231004E6F2053442063617264004368A4
:1030F000616E67652053442063617264004D323114
:10310000005072696E742066726F6D2053440053D4
:10311000746F70207072696E7400526573756D659E
:10312000207072696E7400496E69742E20534420B9
:1031300063617264005061757365207072696E74AA
:1031400000436F6E74726F6C0050726570617265CF
:103150000054756E6500496E666F20736372656515
:103160006E00426162797374657070696E67205A8F
:10317000004368616E67652066696C616D656E7499
:10318000004261627973746570205A00466C6F77F3
:1031900000466C6F7700466C6F770046616E207357
:1031A000706565640046616E2073706565640046F5
:1031B000616E2073706565640042656400426564F9
:1031C000004E6F7A7A6C65004E6F7A7A6C650053A8
:1031D000706565640053706565640053706565646F
:1031E000004D61696E0045787472756465206D6F7D
:1031F000726500526573756D65207072696E74003A
:10320000524553554D45204F5054494F4E533A0067
:1032100020204E6F7A7A6C653A20006368616E6791
:1032200065006F66207468652066696C616D656E07
:1032300074005761697420666F72207374617274D0
:10324000005052494E5420504155534544002020CF
:103250004E6F7A7A6C653A2000200066696C616D69
:10326000656E7420756E6C6F6164005761697420BF
:10327000666F72005052494E542050415553454498
:103280000020204E6F7A7A6C653A20002000506C46
:103290006561736520776169742E2E2E0048656123
:1032A00074696E67206E6F7A7A6C65005052494E71
:1032B00054205041555345440020204E6F7A7A6C7B
:1032C000653A2000200068656174206E6F7A7A6C20
:1032D000652E00507265737320627574746F6E2072
:1032E000746F005052494E5420504155534544008C
:1032F00020204E6F7A7A6C653A2000746F20636FDD
:103300006E74696E75652E2E2E00616E642070726B
:1033100065737320627574746F6E00496E736572A5
:10332000742066696C616D656E74005052494E542C
:10333000205041555345440020204E6F7A7A6C65E9
:103340003A2000200066696C616D656E74206C6FB8
:103350006164005761697420666F72005052494E73
:10336000542050415553454400526573656E643A8C
:1033700020006F6B000015D02ECA11241FBECFEFA6
:10338000D0E4DEBFCDBF12E0A0E0B1E0ECE7FEEBA1
:1033900001E00BBF02C007900D92A839B107D9F721
:1033A00022E1A8E9B2E001C01D92A93FB207E1F70E
:1033B00019E1CCEBD9E104C02197FE010E94A7DE00
:1033C000CB3BD107C9F70E949FCB0C9431DF0C9403
:1033D00000002F923F924F925F926F927F928F9256
:1033E0009F92AF92BF92CF92DF92EF92FF920F9394
:1033F0001F93CF93DF93CDB7DEB7C755D1090FB673
:10340000F894DEBF0FBECDBF0091EB0520E6029F12
:103410008001112405591B4F80912A1280FF1AC088
:10342000E8E5FFE184917F013FEFE31AF30A8111A0
:1034300002C0780104C00E94DF37F701F3CFD70143
:103440008D917D01882319F00E94DF37F8CF8AE043
:103450000E94DF371092BE021092BD028FE380936C
:10346000D7021092D6021092D5021092B202109298
:10347000B3021092B4021092B502F80180810F5F7E
:103480001F4F8032D1F3DF018E34B1F4818190ED92
:10349000980F9A3020F08D3211F08B3269F4329609
:1034A000DF0131962C9120532A30D0F3CD01DC017D
:1034B00001962C912032D9F3B0935F03A0935E0361
:1034C0007D01EFEFEE1AFE0A1C916AE270E0C7017F
:1034D0000E94F9DE009731F0FC0131978081803243
:1034E000E1F311821D3429F0143519F0173409F075
:1034F000CEC0F70180812FEFE21AF20A8032C9F3C1
:1035000080538A3008F0C3C01093D7022091D502AF
:103510003091D6024AE03196429FC001439F900D00
:103520001124DF0111972C91022E000C330B205334
:103530003109280F391F808180538A3060F330931E
:10354000D6022093D502DF0131968C918032D9F3D7
:103550001D3451F000915E036091BD027091BE0276
:1035600088248394912C55C02E31310591F03CF480
:103570002731310571F02C31310561F70AC025374B
:10358000310544F32737310524F0203A43E034076E
:1035900009F7B093BE02A093BD0279C0413209F48D
:1035A00042C0EFEBE40FEA3108F05DC0DC017D01C1
:1035B0005D915032E1F3C701A0EDA50FAA3008F0EC
:1035C00046C0DC01EE2EF12C670143E0D594C79490
:1035D0004A95E1F7A6014E545D4F6A014E2F4770A0
:1035E000F40102C0EE0FFF1F4A95E2F7AF01F601AA
:1035F0005081452B40831097A1F1A01BA70148568D
:103600005D4FFA01A083DC014C9141544A3180F5B1
:10361000DC01CD0101964C914111C0CF7093BE02E7
:103620006093BD0234C01D3409F0BBCF2032310598
:1036300009F0B7CF9093BE028093BD0263E270E0C1
:103640000E94F9DE009719F1DC011C9220C0A3ED65
:10365000A50FA23008F4B5CF5B3211F00C94442EC4
:10366000B0CFA0E0CBCF6115710569F6BD01CBCF1E
:10367000AD011196FA01908190539A30C8F3CA01B6
:103680004F5F5F4FFC01A081A032C9F3C1CF809191
:10369000D7028D3409F423C3843511F40C94E52D3D
:1036A000873411F00C94272E8091D5029091D60288
:1036B0008C31910509F4E4C164F497FF02C00C94C5
:1036C000412E82309105B4F0049709F492C10C9414
:1036D000412E8B35910509F489C28C35910509F489
:1036E0008AC28A35910511F00C94412E1092D402B1
:1036F0000C94412E80917001882311F40C94412E7A
:1037000080E8C82E83E0D82E9AE1E92E97E0F92EC2
:1037100020EDA22E22E0B22E01E811E034E0932E3B
:10372000900ED8018D918D010E9492378823D9F097
:103730000E945F37F5012081211104C02091D4023D
:10374000222331F0D7012D913D914D915C9103C021
:1037500020E030E0A9010E9458DCF601608371830B
:10376000828393830AC0F70180819181A281B38112
:10377000F60180839183A283B383F4E0CF0ED11C42
:1037800024E0E20EF11C3FEFA31AB30A9012C9CF56
:1037900086E40E94C1378823C9F00E945F3720E089
:1037A00030E0A9010E94DBDD181684F40E945F3727
:1037B00020E030E040E752E40E94DBDC609300014F
:1037C00070930101809302019093030180911D0188
:1037D000882309F4B4C0C090ED05D090EE05E090C8
:1037E000EF05F090F005A7019601609180037091BC
:1037F000810380918203909183030E9427D887FFE1
:1038000008C0C0928003D0928103E0928203F092BC
:103810008303C090F105D090F205E090F305F0909D
:10382000F405A7019601609184037091850380914E
:103830008603909187030E9427D887FF08C0C09213
:103840008403D0928503E0928603F0928703C090B0
:10385000F505D090F605E090F705F090F805A70182
:103860009601609188037091890380918A039091F9
:103870008B030E9427D887FF08C0C0928803D0928C
:103880008903E0928A03F0928B03C0901101D090DB
:103890001201E0901301F0901401A70196016091CC
:1038A00080037091810380918203909183030E9431
:1038B000DBDD181644F4C0928003D0928103E092BD
:1038C0008203F0928303C0901501D0901601E0901E
:1038D0001701F0901801A70196016091840370917F
:1038E000850380918603909187030E94DBDD181683
:1038F00044F4C0928403D0928503E0928603F09250
:103900008703C0901901D0901A01E0901B01F0903C
:103910001C01A70196016091880370918903809131
:103920008A0390918B030E94DBDD181644F4C09249
:103930008803D0928903E0928A03F0928B030E945D
:10394000D4372091800330918103409182035091BC
:10395000830360911A0770911B0780911C07909157
:103960001D070E9427D881111DC02091840330912A
:103970008503409186035091870360911E077091E3
:103980001F0780912007909121070E9427D881115D
:1039900009C0609100017091010180910201909134
:1039A00003011AC060917D0170917E01072E000C09
:1039B000880B990B0E942ED82091000130910101B3
:1039C00040910201509103010E948DD82AE037ED09
:1039D00043E25CE30E948DD80E94233680E1E0E858
:1039E000F3E0AAE1B7E001900D928A95E1F70C941B
:1039F000412E80E50E94C137882329F00E941B37A1
:103A00006B017C0103C0C12CD12C760183E50E949F
:103A1000C137882361F00E945F3720E030E04AE739
:103A200054E40E948DD80E9454DD6B017C010E94F9
:103A3000069F80912D01811105C060E089E291E02F
:103A40000E94435E0E94D43780916003909161038D
:103A5000A0916203B0916303C80ED91EEA1EFB1E3B
:103A60000E94F892DC01CB018C199D09AE09BF09B7
:103A7000B7FD02C00C94412E80E00E948F43F0CF2E
:103A80000E94069F8091000190910101A091020186
:103A9000B09103018093B9029093BA02A093BB0244
:103AA000B093BC0280917D0190917E019093B80209
:103AB0008093B70284E690E090937E0180937D012D
:103AC0000E94D43711E010933A0488E50E9492379F
:103AD000E82E89E50E949237082F8AE50E949237E6
:103AE000F82EE11004C0011104C0182705C001110F
:103AF00002C010E001C0182F0E941936111105C034
:103B0000E11003C0002309F444C020E030E040EAA3
:103B100050E46091700370917103809172039091F1
:103B200073030E9458DC6093880370938903809329
:103B30008A0390938B0320912207309123074091B1
:103B40002407509125070E94DBDD18167CF41982AA
:103B50001A821B821C829E012F5F3F4F48E853E070
:103B60006EE177E08AE197E00E943535111105C0DA
:103B7000E11003C0011107C00CC080E090E00E947A
:103B80000A421123B9F381E090E00E940A42111128
:103B900002C0FF2021F082E090E00E940A420E94D1
:103BA000113780910D1280933A048091B90290915F
:103BB000BA02A091BB02B091BC0280930001909325
:103BC0000101A0930201B09303018091B70290918B
:103BD000B80290937E0180937D010E94D43783E0E8
:103BE00080932C010E94618B0C94412E81E0809384
:103BF000D4020C94412E85E40E94C137B82E811165
:103C000002C00E94069FB1E88B2EB1E09B2E1AE104
:103C1000C12E17E0D12E04E7E02E03E0F02E00E0E5
:103C200010E0A12CD4018D914D010E94C137882351
:103C3000F1F1F601208131814281538165962FAFE8
:103C4000659766963FAF669767964FAF679768969A
:103C50005FAF68970E945F37D6016D937D938D9318
:103C60009C93139765962FAD659766963FAD6697C3
:103C700067964FAD679768965FAD689703301105FB
:103C8000B1F00E9457DC9B01AC01F70160817181AA
:103C9000828193810E9458DCD7016D937D938D932F
:103CA0009C931397C8010E943C36AA24A3940F5FEB
:103CB0001F4FB4E0CB0ED11CE4E0EE0EF11C04303B
:103CC000110509F0AFCFAA2019F00E94113703C0E7
:103CD000B1100E94697F0E94618B0C94412E8091EB
:103CE000D5029091D6028037910509F4EFC50CF00A
:103CF000A8C08A32910509F4D7C40CF056C08731A8
:103D0000910509F45BC24CF58231910509F4D2C6E4
:103D1000BCF497FF02C00C94412E823091050CF444
:103D20007CC1419711F00C94412E60E086E691E051
:103D30000E94435E5E985E9815985E980C94412EA2
:103D40008531910509F430C20CF032C2449711F06C
:103D50000C94412EEEE7F1E0E4C18B31910509F4BA
:103D60005FC23CF48931910509F446C20CF439C2B2
:103D700049C28E31910509F48FC274F44C9711F049
:103D80000C94412E40E060E08091BD029091BE0213
:103D90000E94B67A0C94412E8F31910509F4DEC34E
:103DA000809709F491C30C94412E8C35910509F448
:103DB000D3C634F58135910509F45CC68CF48C3496
:103DC000910509F4B1C48D34910509F4B1C48B3463
:103DD000910511F00C94412E0E94A77F0C94412E66
:103DE0008335910509F461C60CF45BC684359105F1
:103DF00009F460C68535910509F493C60C94412EEB
:103E00008B36910509F424C664F48936910509F4CA
:103E100081C50CF0FEC58836910509F48DC40C945B
:103E2000412E8D36910509F4BAC50CF44BC58E367A
:103E3000910509F4C8C48F36910509F4D7C40C94D0
:103E4000412E833D910511F40C9477290CF077C035
:103E50008139910511F40C94742764F58637910526
:103E600011F40C94CE269CF48337910509F4FDC619
:103E70008537910509F48AC78237910511F00C94B2
:103E8000412E0E94069F0E94618B0C94412E883720
:103E9000910511F40C94692714F40C9405278937C3
:103EA000910511F40C946F278C38910509F416C50F
:103EB0000C94412E893C910511F40C9433287CF428
:103EC0008E3B910509F489C5883C910511F40C9449
:103ED000EB278B39910511F00C94412E35C58C3CA4
:103EE000910511F40C94692884F48B3C910511F030
:103EF0000C94412EF0E1EF2EF4E0FF2E01E811E0EA
:103F0000A4E0DA2ED00E0C945A288D3C910511F4C1
:103F10000C94D3288E3C910511F00C94412E61E84D
:103F2000A62E61E0B62E7AE1C72E77E0D72EEEE31B
:103F3000EE2EE4E0FE2E00E010E00C943E298A39DB
:103F4000F1E09F0709F4C6C4ACF58C3231E0930769
:103F500011F40C945E2A8CF48D3D910511F40C94AF
:103F60001C2A823E910511F40C94352A8C3D910552
:103F700011F00C94412E0C940F2A8F3251E09507CA
:103F800011F40C94252B3CF48D32914011F40C94D7
:103F9000872A0C94412E8336E1E09E0711F40C949D
:103FA000BA2D8039914011F00C94412E0E94069F49
:103FB0000C94412E863F21E0920711F40C942E2B95
:103FC00094F4843F41E0940711F40C94282B14F0EE
:103FD0000C942B2B8C3A914011F00C94412E0E94A2
:103FE000208C0C94412E8835B2E09B0711F40C9480
:103FF0003F2B3CF4873F914011F40C94312B0C94EF
:10400000412E803A23E0920709F49BC2873E9340F9
:1040100011F40C94D32D0C94412EA090BD02B090BD
:10402000BE0280E50E94C137882359F00E941B37E9
:104030006B017C0111E0672B682B692B31F410E0D8
:1040400004C010E0C12CD12C760183E50E94C13759
:104050008823F1F00E945F3720E030E04AE754E423
:104060000E948DD80E9454DD6B017C01111112C099
:10407000672B682B692B71F4A114B10459F0D50199
:104080008C91882339F061E0C5010E94625E07C00F
:10409000112391F360E083E591E00E94435E81E0AB
:1040A0008093D5030E94069F0E94D437C114D10487
:1040B000E104F104F1F08091600390916103A0911B
:1040C0006203B0916303C80ED91EEA1EFB1E0E9454
:1040D000F892DC01CB018C199D09AE09BF09B7FF2D
:1040E0001CC08091D5038823C1F080E00E948F43DB
:1040F000EECF8091D503882321F080E00E948F438A
:10410000F8CF8091DE0960E0882319F084E491E023
:1041100002C082E391E00E94435E1092D5030C94AA
:10412000412E84918F010F5F1F4F882321F00E9441
:10413000DF37F801F6CF1092640C1092630C40E068
:1041400050E0BA018FE09AE00E94E0C28BE1EFE01C
:10415000FAE0DE01159601900D928A95E1F78091C3
:104160000D0A90910E0A9C838B838BEE91E09A83CB
:10417000898340E050E0BE016F5F7F4F86E992E0A7
:104180000E940784CE0101960E940E43EFE6F1E003
:1041900084918F010F5F1F4F882311F40C94412EDF
:1041A0000E94DF37F801F4CF0E94EB7D0C94412E82
:1041B0001092DE091092DF090C94412E8091BD020D
:1041C0009091BE02FC012081222329F0203209F4C3
:1041D00010823196F8CF40E061E00E94B67A0C94EC
:1041E000412E8091DF09882319F081E08093DE0958
:1041F0000E94A77F0C94412E1092DE090E94E77F57
:104200000C94412E8091DF09882311F40C94412EE7
:1042100083E50E94C13781110C944E2E0C94412EDF
:104220008091DF09882351F1EFE8F1E084918F015B
:104230000F5F1F4F882321F00E94DF37F801F6CF70
:1042400060915A0C70915B0C80915C0C90915D0CAC
:104250004AE00E94E6378FE20E94DF376091560CF9
:104260007091570C8091580C9091590C4AE00E9423
:10427000E6378AE00E94DF370C94412EE1EAF1E054
:1042800084918F010F5F1F4F882311F40C94412EEE
:104290000E94DF37F801F4CF8091DF09882311F401
:1042A0000C94412E89EA9BE00E949DC289EA9BE022
:1042B0000E948F3C1092DD091092DC09E090BD0253
:1042C000F090BE028091DF09882311F40C94412EF6
:1042D0000E9471811D8218861C821B828BEE91E0E8
:1042E0009A8389838BE09AE090932B0A80932A0A21
:1042F000F70180818F3209F068C06FE270E0C7017A
:104300000E94F9DE8C010F5F1F4F9E012F5F3F4F10
:1043100049010115110509F45EC06FE270E0C801A2
:104320000E94F9DE6C01009709F456C008171907BE
:1043300008F052C05C01A01AB10AA501B801CE0173
:1043400080960E9422DFE0E2F0E0EC0FFD1FEA0D14
:10435000FB1D10828E01005E1F4FD8018D918D01D3
:10436000882319F00E94DF37F8CF8AE00E94DF37F8
:1043700060912A0A70912B0A6115710511F06C5F2A
:104380007F4F21E0AE01405E5F4FCE0105960E9457
:10439000B140811112C0BE01605E7F4F88ED91E097
:1043A0000E941FC88EE20E94DF378AE00E94DF373A
:1043B000C4010E940E430C94412E90922B0A8092CD
:1043C0002A0A86010F5F1F4FA4CF8CE29AE09093D8
:1043D0002B0A80932A0A870160912A0A70912B0A7E
:1043E0006115710511F06C5F7F4F18A21BA222E0CE
:1043F000A801CE0180960E94B140811102C0F12C2B
:104400001EC0CE0180960E94DF808823C1F36CA578
:104410007DA58EA59FA541E00E94A056882379F333
:10442000E8A9B0E2EB9FF0011124E65CF84F309769
:1044300031F385EE80831BA20E946056F82ECE01D8
:1044400080960E94CE37FF2009F1E2EBF1E08491E3
:104450007F012FEFE21AF20A882321F00E94DF3752
:10446000F701F5CFD8018D918D01882319F00E94B5
:10447000DF37F8CF8AE00E94DF3710925A0C109293
:104480005B0C10925C0C10925D0C18C0E0ECF1E03B
:1044900084917F01BFEFEB1AFB0A882321F00E9471
:1044A000DF37F701F5CFF80181918F01882319F0EB
:1044B0000E94DF37F8CF8EE20E94DF37CE010196EF
:1044C0000E940E430C94412E8091DE0981110E94BE
:1044D000069FE090BD02F090BE0280E50E949237F8
:1044E000182F882319F00E944F37182F8091DF0969
:1044F000882311F40C94412E412F61E0C7010E94E2
:10450000B67A83E50E94C137882381F00E942B3759
:10451000AB01BC0140935A0C50935B0C60935C0C54
:1045200070935D0C89EA9BE00E94E0C28091DF09F4
:10453000882319F081E08093DE0911110C94412E3B
:1045400057CE8091BD029091BE0221E02093DD09FB
:1045500040E060E00E94B67A0C94412E0E94D18324
:10456000ACE3CA2ED12CE12CF12CA70196010E94BC
:104570001BDC762E672ECA01B901A70196010E94A5
:104580001BDC6B017C01CA01B90128E130E040E08D
:1045900050E00E941BDC4B015C01C9016DE671E03B
:1045A0000E9460DE8E010F5F1F4F6115710599F04B
:1045B0006F927F92DF92CF929F928F929F938F9371
:1045C0007F936F9384E192E09F938F931F930F9358
:1045D0000E94BED712C00097B1F06F927F92DF9217
:1045E000CF929F928F929F938F9384E092E09F93BC
:1045F0008F931F930F930E94BED70FB6F894DEBF20
:104600000FBECDBF36C081149104A104B10479F06E
:104610006F927F92DF92CF929F928F9288EF91E07C
:104620009F938F931F930F930E94BED7E6CFC11421
:10463000D104E104F10469F06F927F92DF92CF928E
:1046400080EF91E09F938F931F930F930E94BED7AB
:10465000D4CF6F927F928CEE91E09F938F931F93B4
:104660000F930E94BED70F900F900F900F900F9056
:104670000F9060E0C8010E94625EE8E5FFE184916E
:104680007F01BFEFEB1AFB0A882321F00E94DF377E
:10469000F701F5CFB80188E292E00E941FC88AE0D6
:1046A0000E94DF370C94412E83E50E94C137882396
:1046B00011F40C94412E0E943B37E82E80E50E94B5
:1046C000C137882311F40C94412E0E942B37162FEA
:1046D000C62ED72ED7FE02C00C94412EE4E1F5E0A1
:1046E00088E28E0F9491191729F031968E13FACF24
:1046F0000C945F2EEDE3FFE184918F010F5F1F4F5C
:10470000882321F00E94DF37F801F6CFE5E3F2E0DD
:1047100084918F010F5F1F4F882311F40C94412E59
:104720000E94DF37F801F4CF0E94E77F0C94412EFE
:104730000E9497810C94412E88E690E00E944E38AA
:1047400081110C94412E80912A1283FF02C00C9497
:10475000412E83E50E94C137882311F40C94412E29
:104760000E945F370E944DDD70934C1260934B1294
:1047700080E00E947C9A0E945F372091960C3091D5
:10478000970C4091980C5091990C0E94DBDD181603
:1047900014F00C94412E8EE092E09F938F938091C1
:1047A000B60290E001969F938F9384E492E09F93EA
:1047B0008F931F920E947C810FB6F894DEBF0FBECC
:1047C000CDBF0C94412E8EE40E94C137882311F492
:1047D0000C94412E0E942B376093EF127093F012CD
:1047E0008093F1129093F2120C94412E83E50E9473
:1047F000C137882319F00E943B3701C080E08093C5
:104800002A12E8E5FFE184918F010F5F1F4F882393
:1048100021F00E94DF37F801F6CFE9E5F2E084915C
:104820008F010F5F1F4F882321F00E94DF37F801AF
:10483000F6CF80912A128823A1F1FBE4CF2EF2E07B
:10484000DF2EE12CF12C20E080912A1290E00E2C3A
:1048500002C0959587950A94E2F780FF17C0BB24A4
:10486000B394B20E222319F08CE20E94DF37F601D6
:1048700025913491F901849189010F5F1F4F88239D
:1048800021F00E94DF379801F5CF2B2DFFEFEF1AB3
:10489000FF0A32E0C30ED11C45E0E416F104A1F694
:1048A0000CC0E5E5F2E084918F010F5F1F4F882374
:1048B00021F00E94DF37F801F6CF8AE00E94DF374F
:1048C0000C94412E10927A010C94412E80E692E0D5
:1048D0000E9420430E94088B0C94412E80912A1242
:1048E00083FF02C00C94412E83E50E94C1378823C8
:1048F00011F40C94412E0E945F370E944DDD693700
:10490000710514F068E770E07093501260934F12D5
:104910000C94412E89E690E00E944E3881110C944F
:10492000C731E9E6F2E084918F010F5F1F4F8823C2
:1049300021F00E94DF37F801F6CF0E94338D8AE024
:104940000E94DF370C94C73183E50E94C13788236A
:1049500011F40C94412E0E943B3780935C038D33FD
:1049600018F08CE380935C030E94F8926B017C0149
:1049700020915C0330E0A8EEB3E00E9448DCDC014B
:10498000CB018C0D9D1DAE1DBF1D809358039093D0
:104990005903A0935A03B0935B030C94412E8DE608
:1049A00090E00E944E3881110C94412E80912A1281
:1049B00083FF02C00C94412E83E50E94C1372C96E0
:1049C0008FAF2C9781110C94752E82E50E94C13710
:1049D00081110C94752E0C94412E80912A1283FF24
:1049E00002C00C94412E60E083E992E00E94435E95
:1049F00083E50E94C1372C968FAF2C9781110C94C0
:104A0000FF2F82E50E94C13781110C94FF2F0C9477
:104A1000412E83E50E94C137882339F00E942B374D
:104A20008B016F3F710519F010F00FEF10E080E57A
:104A30000E94C137811106C010934E1200934D128F
:104A40000C94412E0E943B3781110C94412EF4CFDF
:104A500080E50E94C137811106C010924E1210925B
:104A60004D120C94412E0E942B37672B11F00C94A1
:104A7000412EF3CF0E94C79A0E94069F0E941643C0
:104A800010924E1210924D1268EE73E080E090E0AA
:104A90000E942C9860E080EA92E00E94435E0C94B1
:104AA000412E1092D3020C94412E81E08093D302C8
:104AB0000C94412E83E50E94C1378823A1F00E9407
:104AC0005F3720E030E04AE754E40E948DD80E942E
:104AD00054DD609304017093050180930601909367
:104AE00007010C94412E88E50E94923781110C94A5
:104AF0005E3189E50E94923781110C945E318AE51E
:104B00000E94923781110C945E3185E40E949237A5
:104B100081110C945E310E94069F0E9416430C94F2
:104B2000412E83E50E949237882311F40C94412E84
:104B30000E945F3720E030E04AE754E40E948DD8BD
:104B40000E9454DD60936403709365038093660351
:104B5000909367030C94412E61E8C62E61E0D62E37
:104B60007AE2E72E77E0F72E10E0D6018D916D0105
:104B70000E949237882309F46DC0133009F063C096
:104B80000E945F374B015C0120E030E040EA51E4D5
:104B90000E9427D887FF4EC0A50194016091360777
:104BA0007091370780913807909139070E94DBDCBC
:104BB0002B013C019B01AC016091B8037091B903DA
:104BC0008091BA039091BB030E948DD86093B80383
:104BD0007093B9038093BA039093BB03A30192012E
:104BE00060911C0470911D0480911E0490911F041B
:104BF0000E948DD860931C0470931D0480931E0442
:104C000090931F046091691270916A1280916B12E7
:104C100090916C120E942CD8A30192010E948DD811
:104C20000E9454DD6093691270936A1280936B1234
:104C300090936C128092360790923707A0923807B3
:104C4000B092390707C00E945F37F7016083718314
:104C5000828393831F5FF4E0EF0EF11C143009F0A0
:104C600084CF0E9473C90C94412EEBE8F3E0849149
:104C70008F010F5F1F4F882321F00E94DF37F8015B
:104C8000F6CFEDE7F3E084918F010F5F1F4F88238C
:104C900021F00E94DF37F801F6CFE6E6F3E08491D9
:104CA0008F010F5F1F4F882321F00E94DF37F8012B
:104CB000F6CFE6E5F3E084918F010F5F1F4F882365
:104CC00021F00E94DF37F801F6CFE5E4F3E08491AC
:104CD0008F010F5F1F4F882321F00E94DF37F801FB
:104CE000F6CFE4E3F3E084918F010F5F1F4F882339
:104CF00021F00E94DF37F801F6CFE5E2F3E084917E
:104D00008F010F5F1F4F882321F00E94DF37F801CA
:104D1000F6CFE0E1F3E084918F010F5F1F4F88230E
:104D200021F00E94DF37F801F6CFEAEFF2E084913C
:104D30008F010F5F1F4F882321F00E94DF37F8019A
:104D4000F6CFE5EEF2E084918F010F5F1F4F8823CD
:104D500021F00E94DF37F801F6CFE8ECF2E0849111
:104D60008F010F5F1F4F882321F00E94DF37F8016A
:104D7000F6CFE0EBF2E084918F010F5F1F4F8823A5
:104D800009F47FC70E94DF37F801F5CF60E080911A
:104D9000BD029091BE020E94625E73C785E40E94CC
:104DA0009237882381F00E944F37882361F0E8E52D
:104DB000FFE184918F010F5F1F4F882321F00E9434
:104DC000DF37F801F6CF81E40E949237882381F023
:104DD0000E944F37882361F0E2E0F4E084918F0174
:104DE0000F5F1F4F882321F00E94DF37F801F6CFB5
:104DF0000091BD021091BE02D8018D918D018823D2
:104E000009F45BCD0E94DF37F7CFEEE1F4E0849147
:104E10008F010F5F1F4F882321F00E94DF37F801B9
:104E2000F6CFE6E1F4E084918F010F5F1F4F8823F6
:104E300021F00E94DF37F801F6CF329903C00FEF5F
:104E400011E002C004E012E0F80181918F01882393
:104E500019F00E94DF37F8CF8AE00E94DF37EEE0DA
:104E6000F4E084918F010F5F1F4F882321F00E948F
:104E7000DF37F801F6CF339903C00FEF11E002C01E
:104E800004E012E0D8018D918D01882319F00E9471
:104E9000DF37F8CF8AE00E94DF37E6E0F4E0849164
:104EA0008F010F5F1F4F882321F00E94DF37F80129
:104EB000F6CF349903C00FEF11E002C004E012E016
:104EC000F80181918F01882309F4F7CC0E94DF3724
:104ED000F7CF81E080933A0480930D12D2C61092EE
:104EE0003A0410920D12CDC683E50E94C137882383
:104EF00019F00E942B3702C060E070E08B0111278F
:104F000002301105CCF0EDE3FFE184918F010F5FDA
:104F10001F4F882321F00E94DF37F801F6CFE8E326
:104F2000F4E084918F010F5F1F4F882309F4A9C615
:104F30000E94DF37F801F5CF88E40E94C13788234B
:104F4000A9F00E942B376A3A71053CF06E31F1E00E
:104F50007F072CF06DE171E002C06AEA70E0F801B1
:104F6000EE0FFF1FE050FC4F7183608386E40E94C8
:104F7000C1378823A9F00E942B37F801EE0FFF1FDD
:104F8000EC5FFB4F718360836F3F710519F014F084
:104F90006FEF70E077FF02C060E070E071836083C4
:104FA00082E40E94C137882309F46BC60E942B3724
:104FB0006530710534F06A3671052CF069E670E0F1
:104FC00002C065E070E0000F111FF801E450FC4FD3
:104FD0007183608356C688EC90E00E944E38811140
:104FE00050C684E40E9492378823D1F10E945F3733
:104FF00011E020E030E0A9010E9427D8811101C012
:1050000010E010931212112359F10091B60210E032
:105010000E945F37000F111F000F111FF801E25FA0
:10502000FD4E608371838283938320E030E0A90189
:1050300060910E1270910F128091101290911112C6
:105040000E9427D881110CC080E090E0A0E4B0E479
:1050500080930E1290930F12A0931012B09311121E
:105060000E949FC90EC6B0E9EB2EB3E0FB2E01E80B
:1050700011E084E0D82ED00ED8018D918D010E94D0
:105080009237882349F00E945F370E9454DDF70170
:105090006083718382839383F4E0EF0EF11CD0125E
:1050A000EBCF0E9446C8EDC5F4E0EF0EF11CD01620
:1050B00009F4E7C5D8018D918D010E9492378823AC
:1050C00099F30E945F37F701608371838283938332
:1050D000EBCF83E50E9492378823D9F00E945F3797
:1050E000AB01BC014093A8035093A9036093AA03AA
:1050F0007093AB034093A0035093A1036093A2036A
:105100007093A30384EB94E00E94E9C78AE00E94B5
:10511000DF3780E50E949237882399F00E945F373D
:10512000AB01BC014093A8035093A9036093AA0369
:105130007093AB0387E994E00E94E9C78AE00E947C
:10514000DF3782E50E949237882399F00E945F370B
:10515000AB01BC014093A4035093A5036093A60345
:105160007093A70388E794E00E94E9C78AE00E9451
:10517000DF3784E50E949237882309F482C50E94B4
:105180005F37AB01BC014093A0035093A103609330
:10519000A2037093A3038AE594E00E94E9C78AE022
:1051A0000E94DF376EC583E50E949237882351F055
:1051B0000E945F3760930C0470930D0480930E047B
:1051C00090930F0484E50E949237882351F00E9447
:1051D0005F37609308047093090480930A049093E6
:1051E0000B0482E40E949237882351F00E941B37FF
:1051F00060932212709323128093241290932512AD
:1052000088E50E949237882351F00E945F376093AF
:10521000AC037093AD038093AE039093AF0389E525
:105220000E949237882351F00E945F376093B00349
:105230007093B1038093B2039093B3038AE50E9405
:105240009237882351F00E945F376093B4037093C4
:10525000B5038093B6039093B70385E40E94923719
:10526000882309F40EC50E945F376093B8037093DA
:10527000B9038093BA039093BB0303C5D5018D9105
:105280005D010E949237882311F10E945F372B0144
:105290003C01F70120813181428153810E9457DC1A
:1052A0009B01AC01D6016D917D918D919C910E94E5
:1052B00058DCF6016083718382839383D7014D921A
:1052C0005D926D927C921397C8010E943C360F5FED
:1052D0001F4FB4E0CB0ED11CE4E0EE0EF11C033006
:1052E000110561F60E9411370E94618BCAC4E8E57E
:1052F000FFE184918F010F5F1F4F882321F00E94EF
:10530000DF37F801F6CF83E50E949237882321F03A
:105310000E944F3780931D01E4E0F5E084918F01F6
:105320000F5F1F4F882321F00E94DF37F801F6CF6F
:1053300080911D01811103C0E0E0F5E002C0ECEFB7
:10534000F4E084918F010F5F1F4F882321F00E94AA
:10535000DF37F801F6CFE4EFF4E084918F010F5FBF
:105360001F4F882321F00E94DF37F801F6CF4091CC
:10537000ED055091EE056091EF057091F00582EF1B
:1053800094E00E94E9C74091F1055091F2056091C7
:10539000F3057091F4058FEE94E00E94E9C7409107
:1053A000F5055091F6056091F7057091F8058CEEC2
:1053B00094E00E94E9C7E4EEF4E084918F010F5F6E
:1053C0001F4F882321F00E94DF37F801F6CF40916C
:1053D000110150911201609113017091140182EE3C
:1053E00094E00E94E9C74091150150911601609127
:1053F0001701709118018FED94E00E94E9C7409168
:10540000190150911A0160911B0170911C018CEDE2
:1054100094E00E94E9C78AE00E94DF3732C483E546
:105420000E94C137882309F42CC40E942B37709343
:105430007E0160937D0125C48DED90E00E944E3881
:1054400081111FC483E50E94C137882309F419C460
:105450000091B60210E00E942B37000F111FF801D7
:10546000E558FE4F718360830CC480E50E9492373B
:10547000882309F406C40E942B37F62EC62ED72E99
:1054800083E50E94C137882321F00E942B378B01CE
:1054900002C00FEF1FEFC8010196039708F0F1C398
:1054A000D7FCEFC3E4E1F5E088E28E0F9491F916A2
:1054B00009F4E7C331968E13F9CF41C783E50E9403
:1054C000C137882319F00E942B3702C064E071E0D5
:1054D00079A368A380E50E94C137882339F00E9430
:1054E0002B376938F3E17F0730F402C068EE73E0D0
:1054F0007A83698304C088E893E19A838983BE0133
:10550000605E7F4FCE0101960E94357FBAC385E46D
:105510000E94C137811110C080E50E949237882314
:1055200091F00E945F376093F0037093F1038093D2
:10553000F2039093F30307C00E943B37882361F383
:10554000EDE3FFE171C089E40E949237882381F086
:105550000E945F372CEA35EC47E25EE30E948DD86B
:105560006093F8037093F9038093FA039093FB031D
:1055700084E40E949237882381F00E945F372CEAEE
:1055800035EC47E25EE30E94DBDC6093F40370934A
:10559000F5038093F6039093F703E8E5FFE1849128
:1055A0008F010F5F1F4F882321F00E94DF37F80122
:1055B000F6CF4091F0035091F1036091F2037091A6
:1055C000F30384E495E00E94E9C72CEA35EC47E256
:1055D0005EE36091F8037091F9038091FA03909172
:1055E000FB030E94DBDCAB01BC0180E495E00E9480
:1055F000CCC72CEA35EC47E25EE36091F40370918E
:10560000F5038091F6039091F7030E948DD8AB01CA
:10561000BC018CE395E00E94CCC78AE00E94DF3792
:1056200030C30E94DF37F80184918F010F5F1F4F55
:105630008111F7CF09E112E0D8018D918D01882306
:1056400009F43BC90E94DF37F7CF0E94BF8D19C311
:105650000E941C4D16C30E948D5113C30E94FAABC9
:1056600010C383E50E949237882319F00E944F37B8
:1056700001C081E091E089270E946CA802C385E403
:105680000E949237882329F00E945F374B015C010A
:1056900005C0812C912CA12C40ECB42E8AE50E94EF
:1056A000C137882329F00E945F372B013C0106C0D7
:1056B000412C512C30E2632E31E4732E88E50E9498
:1056C000C137882319F00E945F3704C060E070E0A2
:1056D00080E490E423966CAF7DAF8EAF9FAF2397AD
:1056E00089E50E94C137882319F00E945F3704C002
:1056F00060E070E080E490E46BAF7CAF8DAF9EAF74
:1057000085E50E949237882329F00E945F376B015C
:105710007C0106C0C12CD12C26E1E22E24ECF22E15
:105720008CE40E949237882349F00E945F372796C5
:105730006CAF7DAF8EAF9FAF279706C027961CAE8C
:105740001DAE1EAE1FAE279782E40E94C13788238C
:1057500021F00E942B37162F01C015E02090CE09B2
:105760003090CF0980915D038111FDC180912A1293
:1057700083FD13C020E030E0A901C701B6010E94FB
:1057800027D8811108C020E030E0A901C501B4018B
:105790000E9427D881110E94F5D081E080935D039B
:1057A0009091DE09992321F01092DE098093BF02C7
:1057B0000E94E77F80E090E00E9459610E94069F6E
:1057C00080E1EAE1F7E0A0ECB2E001900D928A9569
:1057D000E1F720E030E0A901C501B4010E9427D81B
:1057E0008823F1F00E941936A501940160918C0381
:1057F00070918D0380918E0390918F030E9458DCED
:1058000060938C0370938D0380938E0390938F032A
:1058100060E070E080E792E40E9423360E94069FD9
:1058200020E030E0A901C301B2010E94DBDD1816BF
:1058300024F580E090E0A0E4B0E488A399A3AAA3B3
:10584000BBA3A3019201609122077091230780916D
:105850002407909125070E9458DC69837A838B8303
:105860009C839E01205E3F4FAE014F5F5F4F6EE114
:1058700077E08AE197E00E94353580E090E0A8EC7F
:10588000B2E489839A83AB83BC839E012F5F3F4F31
:1058900042E257E0BE01655C7F4FCE01CF960E9489
:1058A000353520E030E0A901C701B6010E9427D8B4
:1058B000882329F181E090E00E94596180E00E94F4
:1058C0008F430E941936A701960160918C03709155
:1058D0008D0380918E0390918F030E9458DC60931A
:1058E0008C0370938D0380938E0390938F0360E0FD
:1058F00070E080E292E40E9423360E94069F82E0DC
:1059000090E00E94596161E0812F0E94849180E0C3
:105910000E948F430E94F892DC01CB0180549B428D
:10592000AE4FBF4F8093D20C9093D30CA093D40C66
:10593000B093D50C1092480981E08093D50301E023
:105940008091D503882309F442C060E0812F0E9432
:105950008491809148098823B1F188E090E00E9409
:1059600059618091D503882321F081E00E948F4303
:10597000F8CF1092D20C1092D30C1092D40C10923B
:10598000D50C109248090E947C9A0E94F5D082E0C2
:1059900090E00E9459610E94F892DC01CB01805492
:1059A0009B42AE4FBF4F8093D20C9093D30CA093E9
:1059B000D40CB093D50C109248090093D50361E044
:1059C000812F0E94849181E00E948F43B9CF809102
:1059D0005D03882309F4C7C0009148091092D20CD6
:1059E0001092D30C1092D40C1092D50C109248093E
:1059F00080E00E947C9A01110E94F5D061E0812F25
:105A00000E94849120E030E0A90127966CAD7DAD25
:105A10008EAD9FAD27970E9427D88823D9F0002309
:105A200021F082E090E00E94596181E08093D503EB
:105A30008091D503882309F45DC4002309F45AC476
:105A400060E0812F0E94849181E00E948F43F0CF1B
:105A5000019791F584E090E00E94596120E030E0E8
:105A600040E251E460918C0370918D0380918E032C
:105A700090918F030E9458DC60938C0370938D0388
:105A800080938E0390938F0360E070E080E292E455
:105A90000E9423360E94069F1092D50385E090E075
:105AA0000E9459618091C3039091C403009781F6CD
:105AB00081E00E948F43F6CF86E090E00E9459611A
:105AC0008091CC029091CD02A091CE02B091CF02F4
:105AD0008093260790932707A0932807B093290760
